{
  "_format": "hh-sol-artifact-1",
  "contractName": "MintNft",
  "sourceName": "contracts/MinftNft.sol",
  "abi": [
    {
      "inputs": [],
      "stateMutability": "nonpayable",
      "type": "constructor"
    },
    {
      "anonymous": false,
      "inputs": [
        {
          "indexed": true,
          "internalType": "address",
          "name": "owner",
          "type": "address"
        },
        {
          "indexed": true,
          "internalType": "address",
          "name": "approved",
          "type": "address"
        },
        {
          "indexed": true,
          "internalType": "uint256",
          "name": "tokenId",
          "type": "uint256"
        }
      ],
      "name": "Approval",
      "type": "event"
    },
    {
      "anonymous": false,
      "inputs": [
        {
          "indexed": true,
          "internalType": "address",
          "name": "owner",
          "type": "address"
        },
        {
          "indexed": true,
          "internalType": "address",
          "name": "operator",
          "type": "address"
        },
        {
          "indexed": false,
          "internalType": "bool",
          "name": "approved",
          "type": "bool"
        }
      ],
      "name": "ApprovalForAll",
      "type": "event"
    },
    {
      "anonymous": false,
      "inputs": [
        {
          "indexed": true,
          "internalType": "address",
          "name": "previousOwner",
          "type": "address"
        },
        {
          "indexed": true,
          "internalType": "address",
          "name": "newOwner",
          "type": "address"
        }
      ],
      "name": "OwnershipTransferred",
      "type": "event"
    },
    {
      "anonymous": false,
      "inputs": [
        {
          "indexed": true,
          "internalType": "address",
          "name": "from",
          "type": "address"
        },
        {
          "indexed": true,
          "internalType": "address",
          "name": "to",
          "type": "address"
        },
        {
          "indexed": true,
          "internalType": "uint256",
          "name": "tokenId",
          "type": "uint256"
        }
      ],
      "name": "Transfer",
      "type": "event"
    },
    {
      "inputs": [
        {
          "internalType": "address",
          "name": "to",
          "type": "address"
        },
        {
          "internalType": "uint256",
          "name": "tokenId",
          "type": "uint256"
        }
      ],
      "name": "approve",
      "outputs": [],
      "stateMutability": "nonpayable",
      "type": "function"
    },
    {
      "inputs": [
        {
          "internalType": "address",
          "name": "owner",
          "type": "address"
        }
      ],
      "name": "balanceOf",
      "outputs": [
        {
          "internalType": "uint256",
          "name": "",
          "type": "uint256"
        }
      ],
      "stateMutability": "view",
      "type": "function"
    },
    {
      "inputs": [
        {
          "internalType": "uint256",
          "name": "tokenId",
          "type": "uint256"
        }
      ],
      "name": "burn",
      "outputs": [],
      "stateMutability": "nonpayable",
      "type": "function"
    },
    {
      "inputs": [
        {
          "internalType": "uint256",
          "name": "tokenId",
          "type": "uint256"
        }
      ],
      "name": "getApproved",
      "outputs": [
        {
          "internalType": "address",
          "name": "",
          "type": "address"
        }
      ],
      "stateMutability": "view",
      "type": "function"
    },
    {
      "inputs": [
        {
          "internalType": "address",
          "name": "_user",
          "type": "address"
        }
      ],
      "name": "getTokenIds",
      "outputs": [
        {
          "internalType": "uint256[]",
          "name": "",
          "type": "uint256[]"
        }
      ],
      "stateMutability": "view",
      "type": "function"
    },
    {
      "inputs": [
        {
          "internalType": "address",
          "name": "owner",
          "type": "address"
        },
        {
          "internalType": "address",
          "name": "operator",
          "type": "address"
        }
      ],
      "name": "isApprovedForAll",
      "outputs": [
        {
          "internalType": "bool",
          "name": "",
          "type": "bool"
        }
      ],
      "stateMutability": "view",
      "type": "function"
    },
    {
      "inputs": [],
      "name": "name",
      "outputs": [
        {
          "internalType": "string",
          "name": "",
          "type": "string"
        }
      ],
      "stateMutability": "view",
      "type": "function"
    },
    {
      "inputs": [],
      "name": "owner",
      "outputs": [
        {
          "internalType": "address",
          "name": "",
          "type": "address"
        }
      ],
      "stateMutability": "view",
      "type": "function"
    },
    {
      "inputs": [
        {
          "internalType": "uint256",
          "name": "tokenId",
          "type": "uint256"
        }
      ],
      "name": "ownerOf",
      "outputs": [
        {
          "internalType": "address",
          "name": "",
          "type": "address"
        }
      ],
      "stateMutability": "view",
      "type": "function"
    },
    {
      "inputs": [],
      "name": "renounceOwnership",
      "outputs": [],
      "stateMutability": "nonpayable",
      "type": "function"
    },
    {
      "inputs": [
        {
          "internalType": "address",
          "name": "to",
          "type": "address"
        },
        {
          "internalType": "string",
          "name": "uri",
          "type": "string"
        }
      ],
      "name": "safeMint",
      "outputs": [],
      "stateMutability": "nonpayable",
      "type": "function"
    },
    {
      "inputs": [
        {
          "internalType": "address",
          "name": "from",
          "type": "address"
        },
        {
          "internalType": "address",
          "name": "to",
          "type": "address"
        },
        {
          "internalType": "uint256",
          "name": "tokenId",
          "type": "uint256"
        }
      ],
      "name": "safeTransferFrom",
      "outputs": [],
      "stateMutability": "nonpayable",
      "type": "function"
    },
    {
      "inputs": [
        {
          "internalType": "address",
          "name": "from",
          "type": "address"
        },
        {
          "internalType": "address",
          "name": "to",
          "type": "address"
        },
        {
          "internalType": "uint256",
          "name": "tokenId",
          "type": "uint256"
        },
        {
          "internalType": "bytes",
          "name": "data",
          "type": "bytes"
        }
      ],
      "name": "safeTransferFrom",
      "outputs": [],
      "stateMutability": "nonpayable",
      "type": "function"
    },
    {
      "inputs": [
        {
          "internalType": "address",
          "name": "operator",
          "type": "address"
        },
        {
          "internalType": "bool",
          "name": "approved",
          "type": "bool"
        }
      ],
      "name": "setApprovalForAll",
      "outputs": [],
      "stateMutability": "nonpayable",
      "type": "function"
    },
    {
      "inputs": [
        {
          "internalType": "bytes4",
          "name": "interfaceId",
          "type": "bytes4"
        }
      ],
      "name": "supportsInterface",
      "outputs": [
        {
          "internalType": "bool",
          "name": "",
          "type": "bool"
        }
      ],
      "stateMutability": "view",
      "type": "function"
    },
    {
      "inputs": [],
      "name": "symbol",
      "outputs": [
        {
          "internalType": "string",
          "name": "",
          "type": "string"
        }
      ],
      "stateMutability": "view",
      "type": "function"
    },
    {
      "inputs": [
        {
          "internalType": "uint256",
          "name": "tokenId",
          "type": "uint256"
        }
      ],
      "name": "tokenURI",
      "outputs": [
        {
          "internalType": "string",
          "name": "",
          "type": "string"
        }
      ],
      "stateMutability": "view",
      "type": "function"
    },
    {
      "inputs": [
        {
          "internalType": "address",
          "name": "from",
          "type": "address"
        },
        {
          "internalType": "address",
          "name": "to",
          "type": "address"
        },
        {
          "internalType": "uint256",
          "name": "tokenId",
          "type": "uint256"
        }
      ],
      "name": "transferFrom",
      "outputs": [],
      "stateMutability": "nonpayable",
      "type": "function"
    },
    {
      "inputs": [
        {
          "internalType": "address",
          "name": "newOwner",
          "type": "address"
        }
      ],
      "name": "transferOwnership",
      "outputs": [],
      "stateMutability": "nonpayable",
      "type": "function"
    }
  ],
  "bytecode": "0x60806040523480156200001157600080fd5b506040518060400160405280600c81526020017f4e46542054726f6e7374657200000000000000000000000000000000000000008152506040518060400160405280600281526020017f4e5400000000000000000000000000000000000000000000000000000000000081525081600090816200008f919062000412565b508060019081620000a1919062000412565b505050620000c4620000b8620000ca60201b60201c565b620000d260201b60201c565b620004f9565b600033905090565b6000600760009054906101000a900473ffffffffffffffffffffffffffffffffffffffff16905081600760006101000a81548173ffffffffffffffffffffffffffffffffffffffff021916908373ffffffffffffffffffffffffffffffffffffffff1602179055508173ffffffffffffffffffffffffffffffffffffffff168173ffffffffffffffffffffffffffffffffffffffff167f8be0079c531659141344cd1fd0a4f28419497f9722a3daafe3b4186f6b6457e060405160405180910390a35050565b600081519050919050565b7f4e487b7100000000000000000000000000000000000000000000000000000000600052604160045260246000fd5b7f4e487b7100000000000000000000000000000000000000000000000000000000600052602260045260246000fd5b600060028204905060018216806200021a57607f821691505b60208210810362000230576200022f620001d2565b5b50919050565b60008190508160005260206000209050919050565b60006020601f8301049050919050565b600082821b905092915050565b6000600883026200029a7fffffffffffffffffffffffffffffffffffffffffffffffffffffffffffffffff826200025b565b620002a686836200025b565b95508019841693508086168417925050509392505050565b6000819050919050565b6000819050919050565b6000620002f3620002ed620002e784620002be565b620002c8565b620002be565b9050919050565b6000819050919050565b6200030f83620002d2565b620003276200031e82620002fa565b84845462000268565b825550505050565b600090565b6200033e6200032f565b6200034b81848462000304565b505050565b5b8181101562000373576200036760008262000334565b60018101905062000351565b5050565b601f821115620003c2576200038c8162000236565b62000397846200024b565b81016020851015620003a7578190505b620003bf620003b6856200024b565b83018262000350565b50505b505050565b600082821c905092915050565b6000620003e760001984600802620003c7565b1980831691505092915050565b6000620004028383620003d4565b9150826002028217905092915050565b6200041d8262000198565b67ffffffffffffffff811115620004395762000438620001a3565b5b62000445825462000201565b6200045282828562000377565b600060209050601f8311600181146200048a576000841562000475578287015190505b620004818582620003f4565b865550620004f1565b601f1984166200049a8662000236565b60005b82811015620004c4578489015182556001820191506020850194506020810190506200049d565b86831015620004e45784890151620004e0601f891682620003d4565b8355505b6001600288020188555050505b505050505050565b61333b80620005096000396000f3fe608060405234801561001057600080fd5b50600436106101215760003560e01c8063715018a6116100ad578063c87b56dd11610071578063c87b56dd146102f2578063d004b03614610322578063d204c45e14610352578063e985e9c51461036e578063f2fde38b1461039e57610121565b8063715018a6146102745780638da5cb5b1461027e57806395d89b411461029c578063a22cb465146102ba578063b88d4fde146102d657610121565b806323b872dd116100f457806323b872dd146101c057806342842e0e146101dc57806342966c68146101f85780636352211e1461021457806370a082311461024457610121565b806301ffc9a71461012657806306fdde0314610156578063081812fc14610174578063095ea7b3146101a4575b600080fd5b610140600480360381019061013b9190611e4a565b6103ba565b60405161014d9190611e92565b60405180910390f35b61015e61049c565b60405161016b9190611f3d565b60405180910390f35b61018e60048036038101906101899190611f95565b61052e565b60405161019b9190612003565b60405180910390f35b6101be60048036038101906101b9919061204a565b610574565b005b6101da60048036038101906101d5919061208a565b61068b565b005b6101f660048036038101906101f1919061208a565b6106eb565b005b610212600480360381019061020d9190611f95565b61070b565b005b61022e60048036038101906102299190611f95565b61078d565b60405161023b9190612003565b60405180910390f35b61025e600480360381019061025991906120dd565b61083e565b60405161026b9190612119565b60405180910390f35b61027c6108f5565b005b610286610909565b6040516102939190612003565b60405180910390f35b6102a4610933565b6040516102b19190611f3d565b60405180910390f35b6102d460048036038101906102cf9190612160565b6109c5565b005b6102f060048036038101906102eb91906122d5565b6109db565b005b61030c60048036038101906103079190611f95565b610a3d565b6040516103199190611f3d565b60405180910390f35b61033c600480360381019061033791906120dd565b610a4f565b6040516103499190612416565b60405180910390f35b61036c600480360381019061036791906124d9565b610ae6565b005b61038860048036038101906103839190612535565b610b7d565b6040516103959190611e92565b60405180910390f35b6103b860048036038101906103b391906120dd565b610c11565b005b60007f80ac58cd000000000000000000000000000000000000000000000000000000007bffffffffffffffffffffffffffffffffffffffffffffffffffffffff1916827bffffffffffffffffffffffffffffffffffffffffffffffffffffffff1916148061048557507f5b5e139f000000000000000000000000000000000000000000000000000000007bffffffffffffffffffffffffffffffffffffffffffffffffffffffff1916827bffffffffffffffffffffffffffffffffffffffffffffffffffffffff1916145b80610495575061049482610c94565b5b9050919050565b6060600080546104ab906125a4565b80601f01602080910402602001604051908101604052809291908181526020018280546104d7906125a4565b80156105245780601f106104f957610100808354040283529160200191610524565b820191906000526020600020905b81548152906001019060200180831161050757829003601f168201915b5050505050905090565b600061053982610cfe565b6004600083815260200190815260200160002060009054906101000a900473ffffffffffffffffffffffffffffffffffffffff169050919050565b600061057f8261078d565b90508073ffffffffffffffffffffffffffffffffffffffff168373ffffffffffffffffffffffffffffffffffffffff16036105ef576040517f08c379a00000000000000000000000000000000000000000000000000000000081526004016105e690612647565b60405180910390fd5b8073ffffffffffffffffffffffffffffffffffffffff1661060e610d49565b73ffffffffffffffffffffffffffffffffffffffff16148061063d575061063c81610637610d49565b610b7d565b5b61067c576040517f08c379a0000000000000000000000000000000000000000000000000000000008152600401610673906126d9565b60405180910390fd5b6106868383610d51565b505050565b61069c610696610d49565b82610e0a565b6106db576040517f08c379a00000000000000000000000000000000000000000000000000000000081526004016106d29061276b565b60405180910390fd5b6106e6838383610e9f565b505050565b610706838383604051806020016040528060008152506109db565b505050565b3373ffffffffffffffffffffffffffffffffffffffff1661072b8261078d565b73ffffffffffffffffffffffffffffffffffffffff1614610781576040517f08c379a0000000000000000000000000000000000000000000000000000000008152600401610778906127fd565b60405180910390fd5b61078a81611105565b50565b6000806002600084815260200190815260200160002060009054906101000a900473ffffffffffffffffffffffffffffffffffffffff169050600073ffffffffffffffffffffffffffffffffffffffff168173ffffffffffffffffffffffffffffffffffffffff1603610835576040517f08c379a000000000000000000000000000000000000000000000000000000000815260040161082c90612869565b60405180910390fd5b80915050919050565b60008073ffffffffffffffffffffffffffffffffffffffff168273ffffffffffffffffffffffffffffffffffffffff16036108ae576040517f08c379a00000000000000000000000000000000000000000000000000000000081526004016108a5906128fb565b60405180910390fd5b600360008373ffffffffffffffffffffffffffffffffffffffff1673ffffffffffffffffffffffffffffffffffffffff168152602001908152602001600020549050919050565b6108fd611111565b610907600061118f565b565b6000600760009054906101000a900473ffffffffffffffffffffffffffffffffffffffff16905090565b606060018054610942906125a4565b80601f016020809104026020016040519081016040528092919081815260200182805461096e906125a4565b80156109bb5780601f10610990576101008083540402835291602001916109bb565b820191906000526020600020905b81548152906001019060200180831161099e57829003601f168201915b5050505050905090565b6109d76109d0610d49565b8383611255565b5050565b6109ec6109e6610d49565b83610e0a565b610a2b576040517f08c379a0000000000000000000000000000000000000000000000000000000008152600401610a229061276b565b60405180910390fd5b610a37848484846113c1565b50505050565b6060610a488261141d565b9050919050565b6060600960008373ffffffffffffffffffffffffffffffffffffffff1673ffffffffffffffffffffffffffffffffffffffff168152602001908152602001600020805480602002602001604051908101604052809291908181526020018280548015610ada57602002820191906000526020600020905b815481526020019060010190808311610ac6575b50505050509050919050565b6000610af2600861152f565b9050610afe600861153d565b610b088382611553565b610b128183611571565b600960008473ffffffffffffffffffffffffffffffffffffffff1673ffffffffffffffffffffffffffffffffffffffff168152602001908152602001600020819080600181540180825580915050600190039060005260206000200160009091909190915055505050565b6000600560008473ffffffffffffffffffffffffffffffffffffffff1673ffffffffffffffffffffffffffffffffffffffff16815260200190815260200160002060008373ffffffffffffffffffffffffffffffffffffffff1673ffffffffffffffffffffffffffffffffffffffff16815260200190815260200160002060009054906101000a900460ff16905092915050565b610c19611111565b600073ffffffffffffffffffffffffffffffffffffffff168173ffffffffffffffffffffffffffffffffffffffff1603610c88576040517f08c379a0000000000000000000000000000000000000000000000000000000008152600401610c7f9061298d565b60405180910390fd5b610c918161118f565b50565b60007f01ffc9a7000000000000000000000000000000000000000000000000000000007bffffffffffffffffffffffffffffffffffffffffffffffffffffffff1916827bffffffffffffffffffffffffffffffffffffffffffffffffffffffff1916149050919050565b610d07816115de565b610d46576040517f08c379a0000000000000000000000000000000000000000000000000000000008152600401610d3d90612869565b60405180910390fd5b50565b600033905090565b816004600083815260200190815260200160002060006101000a81548173ffffffffffffffffffffffffffffffffffffffff021916908373ffffffffffffffffffffffffffffffffffffffff160217905550808273ffffffffffffffffffffffffffffffffffffffff16610dc48361078d565b73ffffffffffffffffffffffffffffffffffffffff167f8c5be1e5ebec7d5bd14f71427d1e84f3dd0314c0f7b2291e5b200ac8c7c3b92560405160405180910390a45050565b600080610e168361078d565b90508073ffffffffffffffffffffffffffffffffffffffff168473ffffffffffffffffffffffffffffffffffffffff161480610e585750610e578185610b7d565b5b80610e9657508373ffffffffffffffffffffffffffffffffffffffff16610e7e8461052e565b73ffffffffffffffffffffffffffffffffffffffff16145b91505092915050565b8273ffffffffffffffffffffffffffffffffffffffff16610ebf8261078d565b73ffffffffffffffffffffffffffffffffffffffff1614610f15576040517f08c379a0000000000000000000000000000000000000000000000000000000008152600401610f0c90612a1f565b60405180910390fd5b600073ffffffffffffffffffffffffffffffffffffffff168273ffffffffffffffffffffffffffffffffffffffff1603610f84576040517f08c379a0000000000000000000000000000000000000000000000000000000008152600401610f7b90612ab1565b60405180910390fd5b610f8f83838361164a565b610f9a600082610d51565b6001600360008573ffffffffffffffffffffffffffffffffffffffff1673ffffffffffffffffffffffffffffffffffffffff1681526020019081526020016000206000828254610fea9190612b00565b925050819055506001600360008473ffffffffffffffffffffffffffffffffffffffff1673ffffffffffffffffffffffffffffffffffffffff16815260200190815260200160002060008282546110419190612b34565b92505081905550816002600083815260200190815260200160002060006101000a81548173ffffffffffffffffffffffffffffffffffffffff021916908373ffffffffffffffffffffffffffffffffffffffff160217905550808273ffffffffffffffffffffffffffffffffffffffff168473ffffffffffffffffffffffffffffffffffffffff167fddf252ad1be2c89b69c2b068fc378daa952ba7f163c4a11628f55a4df523b3ef60405160405180910390a461110083838361164f565b505050565b61110e81611654565b50565b611119610d49565b73ffffffffffffffffffffffffffffffffffffffff16611137610909565b73ffffffffffffffffffffffffffffffffffffffff161461118d576040517f08c379a000000000000000000000000000000000000000000000000000000000815260040161118490612bb4565b60405180910390fd5b565b6000600760009054906101000a900473ffffffffffffffffffffffffffffffffffffffff16905081600760006101000a81548173ffffffffffffffffffffffffffffffffffffffff021916908373ffffffffffffffffffffffffffffffffffffffff1602179055508173ffffffffffffffffffffffffffffffffffffffff168173ffffffffffffffffffffffffffffffffffffffff167f8be0079c531659141344cd1fd0a4f28419497f9722a3daafe3b4186f6b6457e060405160405180910390a35050565b8173ffffffffffffffffffffffffffffffffffffffff168373ffffffffffffffffffffffffffffffffffffffff16036112c3576040517f08c379a00000000000000000000000000000000000000000000000000000000081526004016112ba90612c20565b60405180910390fd5b80600560008573ffffffffffffffffffffffffffffffffffffffff1673ffffffffffffffffffffffffffffffffffffffff16815260200190815260200160002060008473ffffffffffffffffffffffffffffffffffffffff1673ffffffffffffffffffffffffffffffffffffffff16815260200190815260200160002060006101000a81548160ff0219169083151502179055508173ffffffffffffffffffffffffffffffffffffffff168373ffffffffffffffffffffffffffffffffffffffff167f17307eab39ab6107e8899845ad3d59bd9653f200f220920489ca2b5937696c31836040516113b49190611e92565b60405180910390a3505050565b6113cc848484610e9f565b6113d8848484846116a7565b611417576040517f08c379a000000000000000000000000000000000000000000000000000000000815260040161140e90612cb2565b60405180910390fd5b50505050565b606061142882610cfe565b6000600660008481526020019081526020016000208054611448906125a4565b80601f0160208091040260200160405190810160405280929190818152602001828054611474906125a4565b80156114c15780601f10611496576101008083540402835291602001916114c1565b820191906000526020600020905b8154815290600101906020018083116114a457829003601f168201915b5050505050905060006114d261182e565b905060008151036114e757819250505061152a565b60008251111561151c578082604051602001611504929190612d0e565b6040516020818303038152906040529250505061152a565b61152584611845565b925050505b919050565b600081600001549050919050565b6001816000016000828254019250508190555050565b61156d8282604051806020016040528060008152506118ad565b5050565b61157a826115de565b6115b9576040517f08c379a00000000000000000000000000000000000000000000000000000000081526004016115b090612da4565b60405180910390fd5b806006600084815260200190815260200160002090816115d99190612f70565b505050565b60008073ffffffffffffffffffffffffffffffffffffffff166002600084815260200190815260200160002060009054906101000a900473ffffffffffffffffffffffffffffffffffffffff1673ffffffffffffffffffffffffffffffffffffffff1614159050919050565b505050565b505050565b61165d81611908565b600060066000838152602001908152602001600020805461167d906125a4565b9050146116a4576006600082815260200190815260200160002060006116a39190611d81565b5b50565b60006116c88473ffffffffffffffffffffffffffffffffffffffff16611a25565b15611821578373ffffffffffffffffffffffffffffffffffffffff1663150b7a026116f1610d49565b8786866040518563ffffffff1660e01b81526004016117139493929190613097565b6020604051808303816000875af192505050801561174f57506040513d601f19601f8201168201806040525081019061174c91906130f8565b60015b6117d1573d806000811461177f576040519150601f19603f3d011682016040523d82523d6000602084013e611784565b606091505b5060008151036117c9576040517f08c379a00000000000000000000000000000000000000000000000000000000081526004016117c090612cb2565b60405180910390fd5b805181602001fd5b63150b7a0260e01b7bffffffffffffffffffffffffffffffffffffffffffffffffffffffff1916817bffffffffffffffffffffffffffffffffffffffffffffffffffffffff191614915050611826565b600190505b949350505050565b606060405180602001604052806000815250905090565b606061185082610cfe565b600061185a61182e565b9050600081511161187a57604051806020016040528060008152506118a5565b8061188484611a48565b604051602001611895929190612d0e565b6040516020818303038152906040525b915050919050565b6118b78383611ba8565b6118c460008484846116a7565b611903576040517f08c379a00000000000000000000000000000000000000000000000000000000081526004016118fa90612cb2565b60405180910390fd5b505050565b60006119138261078d565b90506119218160008461164a565b61192c600083610d51565b6001600360008373ffffffffffffffffffffffffffffffffffffffff1673ffffffffffffffffffffffffffffffffffffffff168152602001908152602001600020600082825461197c9190612b00565b925050819055506002600083815260200190815260200160002060006101000a81549073ffffffffffffffffffffffffffffffffffffffff021916905581600073ffffffffffffffffffffffffffffffffffffffff168273ffffffffffffffffffffffffffffffffffffffff167fddf252ad1be2c89b69c2b068fc378daa952ba7f163c4a11628f55a4df523b3ef60405160405180910390a4611a218160008461164f565b5050565b6000808273ffffffffffffffffffffffffffffffffffffffff163b119050919050565b606060008203611a8f576040518060400160405280600181526020017f30000000000000000000000000000000000000000000000000000000000000008152509050611ba3565b600082905060005b60008214611ac1578080611aaa90613125565b915050600a82611aba919061319c565b9150611a97565b60008167ffffffffffffffff811115611add57611adc6121aa565b5b6040519080825280601f01601f191660200182016040528015611b0f5781602001600182028036833780820191505090505b5090505b60008514611b9c57600182611b289190612b00565b9150600a85611b3791906131cd565b6030611b439190612b34565b60f81b818381518110611b5957611b586131fe565b5b60200101907effffffffffffffffffffffffffffffffffffffffffffffffffffffffffffff1916908160001a905350600a85611b95919061319c565b9450611b13565b8093505050505b919050565b600073ffffffffffffffffffffffffffffffffffffffff168273ffffffffffffffffffffffffffffffffffffffff1603611c17576040517f08c379a0000000000000000000000000000000000000000000000000000000008152600401611c0e90613279565b60405180910390fd5b611c20816115de565b15611c60576040517f08c379a0000000000000000000000000000000000000000000000000000000008152600401611c57906132e5565b60405180910390fd5b611c6c6000838361164a565b6001600360008473ffffffffffffffffffffffffffffffffffffffff1673ffffffffffffffffffffffffffffffffffffffff1681526020019081526020016000206000828254611cbc9190612b34565b92505081905550816002600083815260200190815260200160002060006101000a81548173ffffffffffffffffffffffffffffffffffffffff021916908373ffffffffffffffffffffffffffffffffffffffff160217905550808273ffffffffffffffffffffffffffffffffffffffff16600073ffffffffffffffffffffffffffffffffffffffff167fddf252ad1be2c89b69c2b068fc378daa952ba7f163c4a11628f55a4df523b3ef60405160405180910390a4611d7d6000838361164f565b5050565b508054611d8d906125a4565b6000825580601f10611d9f5750611dbe565b601f016020900490600052602060002090810190611dbd9190611dc1565b5b50565b5b80821115611dda576000816000905550600101611dc2565b5090565b6000604051905090565b600080fd5b600080fd5b60007fffffffff0000000000000000000000000000000000000000000000000000000082169050919050565b611e2781611df2565b8114611e3257600080fd5b50565b600081359050611e4481611e1e565b92915050565b600060208284031215611e6057611e5f611de8565b5b6000611e6e84828501611e35565b91505092915050565b60008115159050919050565b611e8c81611e77565b82525050565b6000602082019050611ea76000830184611e83565b92915050565b600081519050919050565b600082825260208201905092915050565b60005b83811015611ee7578082015181840152602081019050611ecc565b60008484015250505050565b6000601f19601f8301169050919050565b6000611f0f82611ead565b611f198185611eb8565b9350611f29818560208601611ec9565b611f3281611ef3565b840191505092915050565b60006020820190508181036000830152611f578184611f04565b905092915050565b6000819050919050565b611f7281611f5f565b8114611f7d57600080fd5b50565b600081359050611f8f81611f69565b92915050565b600060208284031215611fab57611faa611de8565b5b6000611fb984828501611f80565b91505092915050565b600073ffffffffffffffffffffffffffffffffffffffff82169050919050565b6000611fed82611fc2565b9050919050565b611ffd81611fe2565b82525050565b60006020820190506120186000830184611ff4565b92915050565b61202781611fe2565b811461203257600080fd5b50565b6000813590506120448161201e565b92915050565b6000806040838503121561206157612060611de8565b5b600061206f85828601612035565b925050602061208085828601611f80565b9150509250929050565b6000806000606084860312156120a3576120a2611de8565b5b60006120b186828701612035565b93505060206120c286828701612035565b92505060406120d386828701611f80565b9150509250925092565b6000602082840312156120f3576120f2611de8565b5b600061210184828501612035565b91505092915050565b61211381611f5f565b82525050565b600060208201905061212e600083018461210a565b92915050565b61213d81611e77565b811461214857600080fd5b50565b60008135905061215a81612134565b92915050565b6000806040838503121561217757612176611de8565b5b600061218585828601612035565b92505060206121968582860161214b565b9150509250929050565b600080fd5b600080fd5b7f4e487b7100000000000000000000000000000000000000000000000000000000600052604160045260246000fd5b6121e282611ef3565b810181811067ffffffffffffffff82111715612201576122006121aa565b5b80604052505050565b6000612214611dde565b905061222082826121d9565b919050565b600067ffffffffffffffff8211156122405761223f6121aa565b5b61224982611ef3565b9050602081019050919050565b82818337600083830152505050565b600061227861227384612225565b61220a565b905082815260208101848484011115612294576122936121a5565b5b61229f848285612256565b509392505050565b600082601f8301126122bc576122bb6121a0565b5b81356122cc848260208601612265565b91505092915050565b600080600080608085870312156122ef576122ee611de8565b5b60006122fd87828801612035565b945050602061230e87828801612035565b935050604061231f87828801611f80565b925050606085013567ffffffffffffffff8111156123405761233f611ded565b5b61234c878288016122a7565b91505092959194509250565b600081519050919050565b600082825260208201905092915050565b6000819050602082019050919050565b61238d81611f5f565b82525050565b600061239f8383612384565b60208301905092915050565b6000602082019050919050565b60006123c382612358565b6123cd8185612363565b93506123d883612374565b8060005b838110156124095781516123f08882612393565b97506123fb836123ab565b9250506001810190506123dc565b5085935050505092915050565b6000602082019050818103600083015261243081846123b8565b905092915050565b600067ffffffffffffffff821115612453576124526121aa565b5b61245c82611ef3565b9050602081019050919050565b600061247c61247784612438565b61220a565b905082815260208101848484011115612498576124976121a5565b5b6124a3848285612256565b509392505050565b600082601f8301126124c0576124bf6121a0565b5b81356124d0848260208601612469565b91505092915050565b600080604083850312156124f0576124ef611de8565b5b60006124fe85828601612035565b925050602083013567ffffffffffffffff81111561251f5761251e611ded565b5b61252b858286016124ab565b9150509250929050565b6000806040838503121561254c5761254b611de8565b5b600061255a85828601612035565b925050602061256b85828601612035565b9150509250929050565b7f4e487b7100000000000000000000000000000000000000000000000000000000600052602260045260246000fd5b600060028204905060018216806125bc57607f821691505b6020821081036125cf576125ce612575565b5b50919050565b7f4552433732313a20617070726f76616c20746f2063757272656e74206f776e6560008201527f7200000000000000000000000000000000000000000000000000000000000000602082015250565b6000612631602183611eb8565b915061263c826125d5565b604082019050919050565b6000602082019050818103600083015261266081612624565b9050919050565b7f4552433732313a20617070726f76652063616c6c6572206973206e6f7420746f60008201527f6b656e206f776e6572206e6f7220617070726f76656420666f7220616c6c0000602082015250565b60006126c3603e83611eb8565b91506126ce82612667565b604082019050919050565b600060208201905081810360008301526126f2816126b6565b9050919050565b7f4552433732313a2063616c6c6572206973206e6f7420746f6b656e206f776e6560008201527f72206e6f7220617070726f766564000000000000000000000000000000000000602082015250565b6000612755602e83611eb8565b9150612760826126f9565b604082019050919050565b6000602082019050818103600083015261278481612748565b9050919050565b7f4f6e6c79206f776e6572206f662074686520746f6b656e2063616e206275726e60008201527f2069740000000000000000000000000000000000000000000000000000000000602082015250565b60006127e7602383611eb8565b91506127f28261278b565b604082019050919050565b60006020820190508181036000830152612816816127da565b9050919050565b7f4552433732313a20696e76616c696420746f6b656e2049440000000000000000600082015250565b6000612853601883611eb8565b915061285e8261281d565b602082019050919050565b6000602082019050818103600083015261288281612846565b9050919050565b7f4552433732313a2061646472657373207a65726f206973206e6f74206120766160008201527f6c6964206f776e65720000000000000000000000000000000000000000000000602082015250565b60006128e5602983611eb8565b91506128f082612889565b604082019050919050565b60006020820190508181036000830152612914816128d8565b9050919050565b7f4f776e61626c653a206e6577206f776e657220697320746865207a65726f206160008201527f6464726573730000000000000000000000000000000000000000000000000000602082015250565b6000612977602683611eb8565b91506129828261291b565b604082019050919050565b600060208201905081810360008301526129a68161296a565b9050919050565b7f4552433732313a207472616e736665722066726f6d20696e636f72726563742060008201527f6f776e6572000000000000000000000000000000000000000000000000000000602082015250565b6000612a09602583611eb8565b9150612a14826129ad565b604082019050919050565b60006020820190508181036000830152612a38816129fc565b9050919050565b7f4552433732313a207472616e7366657220746f20746865207a65726f2061646460008201527f7265737300000000000000000000000000000000000000000000000000000000602082015250565b6000612a9b602483611eb8565b9150612aa682612a3f565b604082019050919050565b60006020820190508181036000830152612aca81612a8e565b9050919050565b7f4e487b7100000000000000000000000000000000000000000000000000000000600052601160045260246000fd5b6000612b0b82611f5f565b9150612b1683611f5f565b9250828203905081811115612b2e57612b2d612ad1565b5b92915050565b6000612b3f82611f5f565b9150612b4a83611f5f565b9250828201905080821115612b6257612b61612ad1565b5b92915050565b7f4f776e61626c653a2063616c6c6572206973206e6f7420746865206f776e6572600082015250565b6000612b9e602083611eb8565b9150612ba982612b68565b602082019050919050565b60006020820190508181036000830152612bcd81612b91565b9050919050565b7f4552433732313a20617070726f766520746f2063616c6c657200000000000000600082015250565b6000612c0a601983611eb8565b9150612c1582612bd4565b602082019050919050565b60006020820190508181036000830152612c3981612bfd565b9050919050565b7f4552433732313a207472616e7366657220746f206e6f6e20455243373231526560008201527f63656976657220696d706c656d656e7465720000000000000000000000000000602082015250565b6000612c9c603283611eb8565b9150612ca782612c40565b604082019050919050565b60006020820190508181036000830152612ccb81612c8f565b9050919050565b600081905092915050565b6000612ce882611ead565b612cf28185612cd2565b9350612d02818560208601611ec9565b80840191505092915050565b6000612d1a8285612cdd565b9150612d268284612cdd565b91508190509392505050565b7f45524337323155524953746f726167653a2055524920736574206f66206e6f6e60008201527f6578697374656e7420746f6b656e000000000000000000000000000000000000602082015250565b6000612d8e602e83611eb8565b9150612d9982612d32565b604082019050919050565b60006020820190508181036000830152612dbd81612d81565b9050919050565b60008190508160005260206000209050919050565b60006020601f8301049050919050565b600082821b905092915050565b600060088302612e267fffffffffffffffffffffffffffffffffffffffffffffffffffffffffffffffff82612de9565b612e308683612de9565b95508019841693508086168417925050509392505050565b6000819050919050565b6000612e6d612e68612e6384611f5f565b612e48565b611f5f565b9050919050565b6000819050919050565b612e8783612e52565b612e9b612e9382612e74565b848454612df6565b825550505050565b600090565b612eb0612ea3565b612ebb818484612e7e565b505050565b5b81811015612edf57612ed4600082612ea8565b600181019050612ec1565b5050565b601f821115612f2457612ef581612dc4565b612efe84612dd9565b81016020851015612f0d578190505b612f21612f1985612dd9565b830182612ec0565b50505b505050565b600082821c905092915050565b6000612f4760001984600802612f29565b1980831691505092915050565b6000612f608383612f36565b9150826002028217905092915050565b612f7982611ead565b67ffffffffffffffff811115612f9257612f916121aa565b5b612f9c82546125a4565b612fa7828285612ee3565b600060209050601f831160018114612fda5760008415612fc8578287015190505b612fd28582612f54565b86555061303a565b601f198416612fe886612dc4565b60005b8281101561301057848901518255600182019150602085019450602081019050612feb565b8683101561302d5784890151613029601f891682612f36565b8355505b6001600288020188555050505b505050505050565b600081519050919050565b600082825260208201905092915050565b600061306982613042565b613073818561304d565b9350613083818560208601611ec9565b61308c81611ef3565b840191505092915050565b60006080820190506130ac6000830187611ff4565b6130b96020830186611ff4565b6130c6604083018561210a565b81810360608301526130d8818461305e565b905095945050505050565b6000815190506130f281611e1e565b92915050565b60006020828403121561310e5761310d611de8565b5b600061311c848285016130e3565b91505092915050565b600061313082611f5f565b91507fffffffffffffffffffffffffffffffffffffffffffffffffffffffffffffffff820361316257613161612ad1565b5b600182019050919050565b7f4e487b7100000000000000000000000000000000000000000000000000000000600052601260045260246000fd5b60006131a782611f5f565b91506131b283611f5f565b9250826131c2576131c161316d565b5b828204905092915050565b60006131d882611f5f565b91506131e383611f5f565b9250826131f3576131f261316d565b5b828206905092915050565b7f4e487b7100000000000000000000000000000000000000000000000000000000600052603260045260246000fd5b7f4552433732313a206d696e7420746f20746865207a65726f2061646472657373600082015250565b6000613263602083611eb8565b915061326e8261322d565b602082019050919050565b6000602082019050818103600083015261329281613256565b9050919050565b7f4552433732313a20746f6b656e20616c7265616479206d696e74656400000000600082015250565b60006132cf601c83611eb8565b91506132da82613299565b602082019050919050565b600060208201905081810360008301526132fe816132c2565b905091905056fea2646970667358221220bce1468543c29e3c73de4f10467f6d1e5b3d90e7cdb65b43e38659c5b0f36ce464736f6c63430008110033",
  "linkReferences": {},
  "deployedLinkReferences": {}
}